:100000000EC015C014C013C012C011C010C00FC064
:100010000EC00DC00CC00BC00AC009C008C011241E
:100020001FBECFE5D2E0DEBFCDBF12D03AC0E8CFD1
:100030006AE070E022D06115710549F08FE19EE41D
:100040000197F1F700C0000061507109F4CF0895E5
:10005000BB9AC39880E091E0892711F0C39A01C050
:10006000C39824E630E0EFE1FEE43197F1F700C0F9
:10007000000021503109B9F7EFCFAA1BBB1B51E19A
:1000800007C0AA1FBB1FA617B70710F0A61BB70B08
:10009000881F991F5A95A9F780959095BC01CD01AD
:0600A0000895F894FFCF63
:00000001FF
